{
  "contractName": "Blackjack",
  "abi": [
    {
      "inputs": [],
      "payable": false,
      "stateMutability": "nonpayable",
      "type": "constructor"
    },
    {
      "constant": false,
      "inputs": [],
      "name": "enter",
      "outputs": [
        {
          "name": "",
          "type": "uint8[]"
        }
      ],
      "payable": true,
      "stateMutability": "payable",
      "type": "function"
    },
    {
      "constant": false,
      "inputs": [],
      "name": "hit",
      "outputs": [],
      "payable": false,
      "stateMutability": "nonpayable",
      "type": "function"
    },
    {
      "constant": false,
      "inputs": [],
      "name": "stand",
      "outputs": [],
      "payable": false,
      "stateMutability": "nonpayable",
      "type": "function"
    },
    {
      "constant": true,
      "inputs": [],
      "name": "getPlayerCard",
      "outputs": [
        {
          "name": "",
          "type": "uint8[]"
        }
      ],
      "payable": false,
      "stateMutability": "view",
      "type": "function"
    },
    {
      "constant": true,
      "inputs": [],
      "name": "getPlayerSum",
      "outputs": [
        {
          "name": "",
          "type": "uint8"
        }
      ],
      "payable": false,
      "stateMutability": "view",
      "type": "function"
    },
    {
      "constant": true,
      "inputs": [],
      "name": "getPlayersCardSuit",
      "outputs": [
        {
          "name": "",
          "type": "uint8[]"
        }
      ],
      "payable": false,
      "stateMutability": "view",
      "type": "function"
    },
    {
      "constant": true,
      "inputs": [],
      "name": "getPlayers",
      "outputs": [
        {
          "name": "",
          "type": "address[2]"
        }
      ],
      "payable": false,
      "stateMutability": "view",
      "type": "function"
    },
    {
      "constant": true,
      "inputs": [],
      "name": "getOwner",
      "outputs": [
        {
          "name": "",
          "type": "address"
        }
      ],
      "payable": false,
      "stateMutability": "view",
      "type": "function"
    },
    {
      "constant": true,
      "inputs": [],
      "name": "getWhoWin",
      "outputs": [
        {
          "name": "",
          "type": "uint8"
        }
      ],
      "payable": false,
      "stateMutability": "view",
      "type": "function"
    }
  ],
  "bytecode": "0x60806040526000600b60006101000a81548160ff021916908360ff1602179055506000600b60016101000a81548160ff021916908360ff1602179055506000600b60026101000a81548160ff0219169083151502179055506000600b60036101000a81548160ff0219169083151502179055506000600b60046101000a81548160ff0219169083151502179055506000600b60056101000a81548160ff0219169083151502179055506000600b60066101000a81548160ff0219169083151502179055506000600b60076101000a81548160ff021916908360ff1602179055503480156100eb57600080fd5b50336000806101000a81548173ffffffffffffffffffffffffffffffffffffffff021916908373ffffffffffffffffffffffffffffffffffffffff1602179055506122c88061013b6000396000f300608060405260043610610099576000357c0100000000000000000000000000000000000000000000000000000000900463ffffffff1680631e5b004b1461009e5780632ae3594a1461010a578063893d20e8146101215780638b5b9ccc146101785780639aaef663146101cb578063a911b6d7146101fc578063c2897b1014610268578063d5f12ab61461027f578063e97dcb62146102b0575b600080fd5b3480156100aa57600080fd5b506100b361030f565b6040518080602001828103825283818151815260200191508051906020019060200280838360005b838110156100f65780820151818401526020810190506100db565b505050509050019250505060405180910390f35b34801561011657600080fd5b5061011f6105a8565b005b34801561012d57600080fd5b50610136610938565b604051808273ffffffffffffffffffffffffffffffffffffffff1673ffffffffffffffffffffffffffffffffffffffff16815260200191505060405180910390f35b34801561018457600080fd5b5061018d610961565b6040518082600260200280838360005b838110156101b857808201518184015260208101905061019d565b5050505090500191505060405180910390f35b3480156101d757600080fd5b506101e06109e2565b604051808260ff1660ff16815260200191505060405180910390f35b34801561020857600080fd5b50610211610adf565b6040518080602001828103825283818151815260200191508051906020019060200280838360005b83811015610254578082015181840152602081019050610239565b505050509050019250505060405180910390f35b34801561027457600080fd5b5061027d610d78565b005b34801561028b57600080fd5b50610294610ec4565b604051808260ff1660ff16815260200191505060405180910390f35b6102b86110ca565b6040518080602001828103825283818151815260200191508051906020019060200280838360005b838110156102fb5780820151818401526020810190506102e0565b505050509050019250505060405180910390f35b60606001600060028110151561032157fe5b0160009054906101000a900473ffffffffffffffffffffffffffffffffffffffff1673ffffffffffffffffffffffffffffffffffffffff163373ffffffffffffffffffffffffffffffffffffffff1614806103d857506003600060028110151561038757fe5b0160009054906101000a900473ffffffffffffffffffffffffffffffffffffffff1673ffffffffffffffffffffffffffffffffffffffff163373ffffffffffffffffffffffffffffffffffffffff16145b1561045b57600980548060200260200160405190810160405280929190818152602001828054801561044f57602002820191906000526020600020906000905b82829054906101000a900460ff1660ff16815260200190600101906020826000010492830192600103820291508084116104185790505b505050505090506105a5565b60018060028110151561046a57fe5b0160009054906101000a900473ffffffffffffffffffffffffffffffffffffffff1673ffffffffffffffffffffffffffffffffffffffff163373ffffffffffffffffffffffffffffffffffffffff1614806105215750600360016002811015156104d057fe5b0160009054906101000a900473ffffffffffffffffffffffffffffffffffffffff1673ffffffffffffffffffffffffffffffffffffffff163373ffffffffffffffffffffffffffffffffffffffff16145b156105a457600a80548060200260200160405190810160405280929190818152602001828054801561059857602002820191906000526020600020906000905b82829054906101000a900460ff1660ff16815260200190600101906020826000010492830192600103820291508084116105615790505b505050505090506105a5565b5b90565b600160006002811015156105b857fe5b0160009054906101000a900473ffffffffffffffffffffffffffffffffffffffff1673ffffffffffffffffffffffffffffffffffffffff163373ffffffffffffffffffffffffffffffffffffffff16148015610627575060001515600b60049054906101000a900460ff161515145b8015610646575060001515600b60069054906101000a900460ff161515145b1561074b57610653611566565b6015600b60009054906101000a900460ff1660ff16118015610688575060001515600b60029054906101000a900460ff161515145b156106c9576000600b60006101000a81548160ff021916908360ff1602179055506001600b60046101000a81548160ff021916908315150217905550610746565b6015600b60009054906101000a900460ff1660ff161180156106fe575060011515600b60029054906101000a900460ff161515145b1561074557600a600b60008282829054906101000a900460ff160392506101000a81548160ff021916908360ff16021790555060001515600b60029054906101000a905050505b5b6108f2565b60018060028110151561075a57fe5b0160009054906101000a900473ffffffffffffffffffffffffffffffffffffffff1673ffffffffffffffffffffffffffffffffffffffff163373ffffffffffffffffffffffffffffffffffffffff161480156107c9575060001515600b60059054906101000a900460ff161515145b80156107e8575060001515600b60069054906101000a900460ff161515145b156108f1576107f5611789565b6015600b60019054906101000a900460ff1660ff1611801561082a575060001515600b60039054906101000a900460ff161515145b1561086b576000600b60016101000a81548160ff021916908360ff1602179055506001600b60056101000a81548160ff0219169083151502179055506108f0565b6015600b60019054906101000a900460ff1660ff161180156108a0575060011515600b60039054906101000a900460ff161515145b156108ef57600a600b60018282829054906101000a900460ff160392506101000a81548160ff021916908360ff1602179055506000600b60036101000a81548160ff0219169083151502179055505b5b5b5b60011515600b60049054906101000a900460ff161515148015610928575060011515600b60059054906101000a900460ff161515145b15610936576109356119ac565b5b565b60008060009054906101000a900473ffffffffffffffffffffffffffffffffffffffff16905090565b61096961219f565b60016002806020026040519081016040528092919082600280156109d8576020028201915b8160009054906101000a900473ffffffffffffffffffffffffffffffffffffffff1673ffffffffffffffffffffffffffffffffffffffff168152602001906001019080831161098e575b5050505050905090565b6000600160006002811015156109f457fe5b0160009054906101000a900473ffffffffffffffffffffffffffffffffffffffff1673ffffffffffffffffffffffffffffffffffffffff163373ffffffffffffffffffffffffffffffffffffffff161415610a6057600b60009054906101000a900460ff169050610adc565b600180600281101515610a6f57fe5b0160009054906101000a900473ffffffffffffffffffffffffffffffffffffffff1673ffffffffffffffffffffffffffffffffffffffff163373ffffffffffffffffffffffffffffffffffffffff161415610adb57600b60019054906101000a900460ff169050610adc565b5b90565b606060016000600281101515610af157fe5b0160009054906101000a900473ffffffffffffffffffffffffffffffffffffffff1673ffffffffffffffffffffffffffffffffffffffff163373ffffffffffffffffffffffffffffffffffffffff161480610ba8575060036000600281101515610b5757fe5b0160009054906101000a900473ffffffffffffffffffffffffffffffffffffffff1673ffffffffffffffffffffffffffffffffffffffff163373ffffffffffffffffffffffffffffffffffffffff16145b15610c2b576007805480602002602001604051908101604052809291908181526020018280548015610c1f57602002820191906000526020600020906000905b82829054906101000a900460ff1660ff1681526020019060010190602082600001049283019260010382029150808411610be85790505b50505050509050610d75565b600180600281101515610c3a57fe5b0160009054906101000a900473ffffffffffffffffffffffffffffffffffffffff1673ffffffffffffffffffffffffffffffffffffffff163373ffffffffffffffffffffffffffffffffffffffff161480610cf1575060036001600281101515610ca057fe5b0160009054906101000a900473ffffffffffffffffffffffffffffffffffffffff1673ffffffffffffffffffffffffffffffffffffffff163373ffffffffffffffffffffffffffffffffffffffff16145b15610d74576008805480602002602001604051908101604052809291908181526020018280548015610d6857602002820191906000526020600020906000905b82829054906101000a900460ff1660ff1681526020019060010190602082600001049283019260010382029150808411610d315790505b50505050509050610d75565b5b90565b60016000600281101515610d8857fe5b0160009054906101000a900473ffffffffffffffffffffffffffffffffffffffff1673ffffffffffffffffffffffffffffffffffffffff163373ffffffffffffffffffffffffffffffffffffffff161415610dfd576001600b60046101000a81548160ff021916908315150217905550610e7e565b600180600281101515610e0c57fe5b0160009054906101000a900473ffffffffffffffffffffffffffffffffffffffff1673ffffffffffffffffffffffffffffffffffffffff163373ffffffffffffffffffffffffffffffffffffffff161415610e7d576001600b60056101000a81548160ff0219169083151502179055505b5b60011515600b60049054906101000a900460ff161515148015610eb4575060011515600b60059054906101000a900460ff161515145b15610ec257610ec16119ac565b5b565b600080600b60079054906101000a900460ff16905060016000600281101515610ee957fe5b0160009054906101000a900473ffffffffffffffffffffffffffffffffffffffff1673ffffffffffffffffffffffffffffffffffffffff163373ffffffffffffffffffffffffffffffffffffffff161480610fa0575060036000600281101515610f4f57fe5b0160009054906101000a900473ffffffffffffffffffffffffffffffffffffffff1673ffffffffffffffffffffffffffffffffffffffff163373ffffffffffffffffffffffffffffffffffffffff16145b15610fad578091506110c6565b600180600281101515610fbc57fe5b0160009054906101000a900473ffffffffffffffffffffffffffffffffffffffff1673ffffffffffffffffffffffffffffffffffffffff163373ffffffffffffffffffffffffffffffffffffffff16148061107357506003600160028110151561102257fe5b0160009054906101000a900473ffffffffffffffffffffffffffffffffffffffff1673ffffffffffffffffffffffffffffffffffffffff163373ffffffffffffffffffffffffffffffffffffffff16145b156110c5576001600b60079054906101000a900460ff1660ff16141561109c57600290506110bd565b6002600b60079054906101000a900460ff1660ff1614156110bc57600190505b5b8091506110c6565b5b5090565b6060670de0b6b3a7640000341480156111405750600160006002811015156110ee57fe5b0160009054906101000a900473ffffffffffffffffffffffffffffffffffffffff1673ffffffffffffffffffffffffffffffffffffffff163373ffffffffffffffffffffffffffffffffffffffff1614155b80156111a8575060018060028110151561115657fe5b0160009054906101000a900473ffffffffffffffffffffffffffffffffffffffff1673ffffffffffffffffffffffffffffffffffffffff163373ffffffffffffffffffffffffffffffffffffffff1614155b15156111b357600080fd5b60011515600b60069054906101000a900460ff161515141561121557600360006111dd91906121c1565b6000600b60066101000a81548160ff0219169083151502179055506000600b60076101000a81548160ff021916908360ff1602179055505b60006001600060028110151561122757fe5b0160009054906101000a900473ffffffffffffffffffffffffffffffffffffffff1673ffffffffffffffffffffffffffffffffffffffff16141561138857336001600060028110151561127657fe5b0160006101000a81548173ffffffffffffffffffffffffffffffffffffffff021916908373ffffffffffffffffffffffffffffffffffffffff160217905550600760006112c391906121cf565b6112cb611566565b6112d3611566565b6015600b60009054906101000a900460ff1660ff16141561130a576001600b60046101000a81548160ff0219169083151502179055505b600780548060200260200160405190810160405280929190818152602001828054801561137c57602002820191906000526020600020906000905b82829054906101000a900460ff1660ff16815260200190600101906020826000010492830192600103820291508084116113455790505b50505050509050611563565b600060018060028110151561139957fe5b0160009054906101000a900473ffffffffffffffffffffffffffffffffffffffff1673ffffffffffffffffffffffffffffffffffffffff1614801561143b5750600160006002811015156113e957fe5b0160009054906101000a900473ffffffffffffffffffffffffffffffffffffffff1673ffffffffffffffffffffffffffffffffffffffff163373ffffffffffffffffffffffffffffffffffffffff1614155b15611562573360018060028110151561145057fe5b0160006101000a81548173ffffffffffffffffffffffffffffffffffffffff021916908373ffffffffffffffffffffffffffffffffffffffff1602179055506008600061149d91906121cf565b6114a5611789565b6114ad611789565b6015600b60009054906101000a900460ff1660ff1614156114e4576001600b60056101000a81548160ff0219169083151502179055505b600880548060200260200160405190810160405280929190818152602001828054801561155657602002820191906000526020600020906000905b82829054906101000a900460ff1660ff168152602001906001019060208260000104928301926001038202915080841161151f5790505b50505050509050611563565b5b90565b6001600d611572611e55565b81151561157b57fe5b0601600560006101000a81548160ff021916908360ff16021790555060046115a1611f89565b8115156115aa57fe5b06600560016101000a81548160ff021916908360ff1602179055506007600560009054906101000a900460ff16908060018154018082558091505090600182039060005260206000209060209182820401919006909192909190916101000a81548160ff021916908360ff160217905550506009600560019054906101000a900460ff16908060018154018082558091505090600182039060005260206000209060209182820401919006909192909190916101000a81548160ff021916908360ff16021790555050600a600560009054906101000a900460ff1660ff161015156116c257600a600b60008282829054906101000a900460ff160192506101000a81548160ff021916908360ff160217905550611787565b6001600560009054906101000a900460ff1660ff161480156116f75750600a600b60009054906101000a900460ff1660ff1611155b1561174957600b8060008282829054906101000a900460ff160192506101000a81548160ff021916908360ff1602179055506001600b60026101000a81548160ff021916908315150217905550611786565b600560009054906101000a900460ff16600b60008282829054906101000a900460ff160192506101000a81548160ff021916908360ff1602179055505b5b565b6001600d611795611e55565b81151561179e57fe5b0601600560006101000a81548160ff021916908360ff16021790555060046117c4611f89565b8115156117cd57fe5b06600560016101000a81548160ff021916908360ff160217905550600a600560019054906101000a900460ff16908060018154018082558091505090600182039060005260206000209060209182820401919006909192909190916101000a81548160ff021916908360ff160217905550506008600560009054906101000a900460ff16908060018154018082558091505090600182039060005260206000209060209182820401919006909192909190916101000a81548160ff021916908360ff16021790555050600a600560009054906101000a900460ff1660ff161015156118e557600a600b60018282829054906101000a900460ff160192506101000a81548160ff021916908360ff1602179055506119aa565b6001600560009054906101000a900460ff1660ff1614801561191a5750600a600b60019054906101000a900460ff1660ff1611155b1561196c57600b8060018282829054906101000a900460ff160192506101000a81548160ff021916908360ff1602179055506001600b60036101000a81548160ff0219169083151502179055506119a9565b600560009054906101000a900460ff16600b60018282829054906101000a900460ff160192506101000a81548160ff021916908360ff1602179055505b5b565b600b60019054906101000a900460ff1660ff16600b60009054906101000a900460ff1660ff161115611b13576000809054906101000a900473ffffffffffffffffffffffffffffffffffffffff1673ffffffffffffffffffffffffffffffffffffffff166108fc60143073ffffffffffffffffffffffffffffffffffffffff1631811515611a3657fe5b049081150290604051600060405180830381858888f19350505050158015611a62573d6000803e3d6000fd5b5060016000600281101515611a7357fe5b0160009054906101000a900473ffffffffffffffffffffffffffffffffffffffff1673ffffffffffffffffffffffffffffffffffffffff166108fc3073ffffffffffffffffffffffffffffffffffffffff16319081150290604051600060405180830381858888f19350505050158015611af1573d6000803e3d6000fd5b506001600b60076101000a81548160ff021916908360ff160217905550611e4b565b600b60009054906101000a900460ff1660ff16600b60019054906101000a900460ff1660ff161115611c79576000809054906101000a900473ffffffffffffffffffffffffffffffffffffffff1673ffffffffffffffffffffffffffffffffffffffff166108fc60143073ffffffffffffffffffffffffffffffffffffffff1631811515611b9d57fe5b049081150290604051600060405180830381858888f19350505050158015611bc9573d6000803e3d6000fd5b50600180600281101515611bd957fe5b0160009054906101000a900473ffffffffffffffffffffffffffffffffffffffff1673ffffffffffffffffffffffffffffffffffffffff166108fc3073ffffffffffffffffffffffffffffffffffffffff16319081150290604051600060405180830381858888f19350505050158015611c57573d6000803e3d6000fd5b506002600b60076101000a81548160ff021916908360ff160217905550611e4a565b6000809054906101000a900473ffffffffffffffffffffffffffffffffffffffff1673ffffffffffffffffffffffffffffffffffffffff166108fc60143073ffffffffffffffffffffffffffffffffffffffff1631811515611cd757fe5b049081150290604051600060405180830381858888f19350505050158015611d03573d6000803e3d6000fd5b5060016000600281101515611d1457fe5b0160009054906101000a900473ffffffffffffffffffffffffffffffffffffffff1673ffffffffffffffffffffffffffffffffffffffff166108fc60023073ffffffffffffffffffffffffffffffffffffffff1631811515611d7257fe5b049081150290604051600060405180830381858888f19350505050158015611d9e573d6000803e3d6000fd5b50600180600281101515611dae57fe5b0160009054906101000a900473ffffffffffffffffffffffffffffffffffffffff1673ffffffffffffffffffffffffffffffffffffffff166108fc3073ffffffffffffffffffffffffffffffffffffffff16319081150290604051600060405180830381858888f19350505050158015611e2c573d6000803e3d6000fd5b506003600b60076101000a81548160ff021916908360ff1602179055505b5b611e536120bd565b565b6000444260016002604051808581526020018481526020018360028015611ec7576020028201915b8160009054906101000a900473ffffffffffffffffffffffffffffffffffffffff1673ffffffffffffffffffffffffffffffffffffffff1681526020019060010190808311611e7d575b5050828152602001945050505050604051809103902060019004600660008282540192505081905550444260016002600654604051808681526020018581526020018460028015611f63576020028201915b8160009054906101000a900473ffffffffffffffffffffffffffffffffffffffff1673ffffffffffffffffffffffffffffffffffffffff1681526020019060010190808311611f19575b505083815260200182815260200195505050505050604051809103902060019004905090565b6000444260016002604051808581526020018481526020018360028015611ffb576020028201915b8160009054906101000a900473ffffffffffffffffffffffffffffffffffffffff1673ffffffffffffffffffffffffffffffffffffffff1681526020019060010190808311611fb1575b5050828152602001945050505050604051809103902060019004600660008282540192505081905550600654600260014244604051808681526020018581526020018460028015612097576020028201915b8160009054906101000a900473ffffffffffffffffffffffffffffffffffffffff1673ffffffffffffffffffffffffffffffffffffffff168152602001906001019080831161204d575b505083815260200182815260200195505050505050604051809103902060019004905090565b600160039060026120cf9291906121f7565b50600160006120de91906121c1565b6000600b60006101000a81548160ff021916908360ff1602179055506000600b60016101000a81548160ff021916908360ff1602179055506000600b60046101000a81548160ff0219169083151502179055506000600b60056101000a81548160ff0219169083151502179055506000600b60026101000a81548160ff0219169083151502179055506000600b60036101000a81548160ff0219169083151502179055506001600b60066101000a81548160ff021916908315150217905550565b6040805190810160405280600290602082028038833980820191505090505090565b506000815560010160009055565b50805460008255601f0160209004906000526020600020908101906121f49190612234565b50565b8260028101928215612223579182015b82811115612222578254825591600101919060010190612207565b5b5090506122309190612259565b5090565b61225691905b8082111561225257600081600090555060010161223a565b5090565b90565b61229991905b8082111561229557600081816101000a81549073ffffffffffffffffffffffffffffffffffffffff02191690555060010161225f565b5090565b905600a165627a7a723058204f6e315ad312ebe706f420d03f31f9d640807f936e2cbb378deaf11706f9eba50029",
  "source": "pragma solidity ^0.4.24;\r\ncontract Blackjack {\r\n\r\n    address private owner;\r\n    address[2] private players;\r\n    address[2] private lastPlayers;\r\n    uint8 private card;\r\n    uint8 private suit;\r\n    uint private rand;\r\n    uint8[] private player1cards;\r\n    uint8[] private player2cards;\r\n    uint8[] private player1cards_suit;\r\n    uint8[] private player2cards_suit;\r\n    uint8 private player1sum = 0;\r\n    uint8 private player2sum = 0;\r\n    bool private player1ace = false;\r\n    bool private player2ace = false;\r\n    bool private player1stand = false;\r\n    bool private player2stand = false;\r\n    bool private endGame = false;\r\n    uint8 whoWin = 0;\r\n    \r\n    constructor() public{\r\n        owner = msg.sender;\r\n    }\r\n    \r\n    function enter() public payable returns(uint8[]){\r\n        require(msg.value == 1 ether && msg.sender != players[0] && msg.sender != players[1]);\r\n        \r\n        if(endGame == true){\r\n            delete lastPlayers;\r\n            endGame = false;\r\n            whoWin = 0;\r\n        }\r\n        //player1\r\n        if(players[0] == 0){\r\n            players[0] = msg.sender;\r\n            delete player1cards;\r\n            //card1\r\n            player1draw();\r\n            //card2\r\n            player1draw();\r\n\r\n            if(player1sum == 21){\r\n                player1stand = true;\r\n            }\r\n\r\n            return player1cards;\r\n        }\r\n        \r\n        //player2\r\n        if(players[1] == 0 && msg.sender != players[0]){\r\n            players[1] = msg.sender;\r\n            delete player2cards;\r\n            //card1\r\n            player2draw();\r\n            //card2\r\n            player2draw();\r\n\r\n            if(player1sum == 21){\r\n                player2stand = true;\r\n            }\r\n\r\n            return player2cards;\r\n        }\r\n    }\r\n    \r\n    function player1draw() private{\r\n        card = uint8(( random() % 13 ) + 1);\r\n        suit = uint8(randomSuit() % 4);\r\n        player1cards.push(card);\r\n        player1cards_suit.push(suit);\r\n        if(card >= 10){\r\n            player1sum += 10;\r\n        }else if(card == 1 && player1sum <= 10){\r\n            player1sum += 11;\r\n            player1ace = true;\r\n        }else{\r\n            player1sum += card;\r\n        }\r\n    }\r\n    \r\n    function player2draw() private{\r\n        card = uint8(( random() % 13 ) + 1);\r\n        suit = uint8(randomSuit() % 4);\r\n        player2cards_suit.push(suit);\r\n        player2cards.push(card);    \r\n        if(card >= 10){\r\n            player2sum += 10;\r\n        }else if(card == 1 && player2sum <= 10){\r\n            player2sum += 11;\r\n            player2ace = true;\r\n        }else{\r\n            player2sum += card;\r\n        }\r\n    }\r\n    \r\n    function hit() public{\r\n        if(msg.sender == players[0] && player1stand == false && endGame == false){\r\n            player1draw();\r\n            if(player1sum > 21 && player1ace == false){\r\n                player1sum = 0;\r\n                player1stand = true;\r\n            }\r\n            else if(player1sum > 21 && player1ace == true){\r\n                player1sum -= 10;\r\n                player1ace == false;\r\n            }\r\n        }else if(msg.sender == players[1] && player2stand == false && endGame == false){\r\n            player2draw();\r\n            if(player2sum > 21 && player2ace == false){\r\n                player2sum = 0;\r\n                player2stand = true;\r\n            }\r\n            else if(player2sum > 21 && player2ace == true){\r\n                player2sum -= 10;\r\n                player2ace = false;\r\n            }\r\n        }if(player1stand == true && player2stand == true){\r\n            findWinner();\r\n        }\r\n    }\r\n    \r\n    function stand() public{\r\n        if(msg.sender == players[0]){\r\n            player1stand = true;\r\n        }else if(msg.sender == players[1]){\r\n            player2stand = true;\r\n        }if(player1stand == true && player2stand == true){\r\n            findWinner();\r\n        }\r\n    }\r\n    \r\n    function findWinner() private{\r\n        if(player1sum > player2sum){\r\n            owner.transfer(address(this).balance/20);\r\n            players[0].transfer(address(this).balance);\r\n            whoWin = 1;\r\n        }else if(player2sum > player1sum){\r\n            owner.transfer(address(this).balance/20);\r\n            players[1].transfer(address(this).balance);\r\n            whoWin = 2;\r\n        }else{\r\n            owner.transfer(address(this).balance/20);\r\n            players[0].transfer(address(this).balance/2);\r\n            players[1].transfer(address(this).balance);\r\n            whoWin = 3;\r\n        }end();\r\n    }\r\n    \r\n    function end() private{\r\n        lastPlayers = players;\r\n        delete players;\r\n        player1sum = 0;\r\n        player2sum = 0;\r\n        player1stand = false;\r\n        player2stand = false;\r\n        player1ace = false;\r\n        player2ace = false;\r\n        endGame = true;\r\n    }\r\n    \r\n    function random() private view returns (uint){\r\n        rand += uint(keccak256(block.difficulty,now,players,players.length));\r\n        return uint(keccak256(block.difficulty,now,players,players.length,rand));\r\n    }\r\n    \r\n    function randomSuit() private view returns (uint){\r\n        rand += uint(keccak256(block.difficulty,now,players,players.length));\r\n        return uint(keccak256(rand,players.length,players,now,block.difficulty));\r\n    }\r\n    \r\n    function getPlayerCard()public view returns(uint8[]){\r\n        if(msg.sender == players[0] || msg.sender == lastPlayers[0]){\r\n            return player1cards;\r\n        }\r\n        else if(msg.sender == players[1] || msg.sender == lastPlayers[1]){\r\n            return player2cards;\r\n        }\r\n    }\r\n\r\n    function getPlayerSum()public view returns(uint8){\r\n        if(msg.sender == players[0]){\r\n            return player1sum;\r\n        }\r\n        else if(msg.sender == players[1]){\r\n            return player2sum;\r\n        }\r\n    } \r\n\r\n    function getPlayersCardSuit()public view returns(uint8[]){\r\n        if(msg.sender == players[0] || msg.sender == lastPlayers[0]){\r\n            return player1cards_suit;\r\n        }\r\n        else if(msg.sender == players[1]|| msg.sender == lastPlayers[1]){\r\n            return player2cards_suit;\r\n        }\r\n    }    \r\n    \r\n    function getPlayers()public view returns(address[2]){\r\n        return players;\r\n    }\r\n\r\n    function getOwner()public view returns(address){\r\n        return owner;\r\n    }\r\n\r\n    function getWhoWin()public view returns(uint8){\r\n        uint8 state = whoWin;\r\n        if(msg.sender == players[0] || msg.sender == lastPlayers[0]){\r\n            return state;\r\n        }\r\n        else if(msg.sender == players[1] || msg.sender == lastPlayers[1]){\r\n            if(whoWin == 1){state = 2;}\r\n            else if(whoWin == 2){state = 1;}\r\n            return state;\r\n        }\r\n    }\r\n    \r\n}",
  "sourcePath": "C:\\Users\\warak\\Documents\\blackjack-ethereum-blockchain\\blackjack\\contracts\\Blackjack.sol",
  "compiler": {
    "name": "solc",
    "version": "0.4.24+commit.e67f0147.Emscripten.clang"
  },
  "schemaVersion": "2.0.1",
  "updatedAt": "2018-11-30T09:18:43.909Z"
}